{
  "info": {
    "author": "Wen",
    "author_email": "wenqinchao@gmail.com",
    "bugtrack_url": null,
    "classifiers": [
      "License :: OSI Approved :: MIT License",
      "Operating System :: OS Independent",
      "Programming Language :: Python :: 3"
    ],
    "description": "# btc-cj\nA simple python package interacts with the bitcoin node, python version >=3.6 is recommend\n# Install\n```\npip3 install btc-cj\n```\n# Docs\nReference: https://developer.bitcoin.org/reference/rpc/\n# Groups\n* [connect](#connect)\n* [chain](#chain)\n    * [get_block_chain_info](#get_block_chain_info)\n    * [get_block_count](#get_block_count)\n    * [get_latest_block_hash](#get_latest_block_hash)\n    * [get_block_hash](#get_block_hash)\n    * [get_block](#get_block)\n* [raw](#raw)\n    * [get_raw_transaction](#get_raw_transaction)\n    * [decode_raw_transaction](#decode_raw_transaction)\n* [wallet](#wallet)\n    * [create_wallet](#create_wallet)\n    * [load_wallet](#load_wallet)\n    * [list_wallets](#list_wallets)\n    * [encrypt_wallet](#encrypt_wallet)\n    * [wallet_pass_phrase](#wallet_pass_phrase)\n    * [wallet_lock](#wallet_lock)\n    * [get_new_address](#get_new_address)\n    * [get_balance](#get_balance)\n    * [send_to_address](#send_to_address)\n    * [list_received_by_address](#list_received_by_address)\n    * [list_received_by_label](#list_received_by_label)\n    * [list_transactions](#list_transactions)\n* [utils](#utils)\n    * [validate_address](#validate_address)\n\n# connect \n```\nfrom btc.bitcoin import BitCoin\nbitcoin = BitCoin(BitCoin.HttpProvider(\"your rpc username\", \"your rpc password\"))\n# The default rpc endpoint is \"http://127.0.0.1:8332\"\nbitcoin = BitCoin(BitCoin.HttpProvider(\"your rpc username\", \"your rpc password\", \"your provider \"))\n```\n# chain\n\n## get_block_chain_info\n**Inputs:**\n```\nNone\n```\n**Example:**\n```\nchain_info = bitcoin.chain.get_block_chain_info()\nprint(chain_info)\n```\n**Outputs:**\n```\n{\n  'chain': 'main',\n  'blocks': 676489,\n  'headers': 676489,\n  'bestblockhash': '00000000000000000001568e72a26b2bed6507a2ad59a3693c1df544298aa290',\n  'difficulty': 21865558044610.55,\n  'mediantime': 1616822714,\n  'verificationprogress': 0.9999993635662282,\n  'initialblockdownload': False,\n  'chainwork': '00000000000000000000000000000000000000001b3249afd4bde69d3038e35a',\n  'size_on_disk': 381107213760,\n  'pruned': False,\n  'softforks': {\n    'bip34': {\n      'type': 'buried',\n      'active': True,\n      'height': 227931\n    },\n    'bip66': {\n      'type': 'buried',\n      'active': True,\n      'height': 363725\n    },\n    'bip65': {\n      'type': 'buried',\n      'active': True,\n      'height': 388381\n    },\n    'csv': {\n      'type': 'buried',\n      'active': True,\n      'height': 419328\n    },\n    'segwit': {\n      'type': 'buried',\n      'active': True,\n      'height': 481824\n    }\n  },\n  'warnings': ''\n}\n```\n\n## get_block_count\n**Inputs:**\n```\nNone\n```\n**Example:**\n```\nblock_count = bitcoin.chain.get_block_count()\nprint(block_count)\n```\n**Outputs:**\n```676487```\n\n## get_latest_block_hash\n**Inputs:**\n```\nNone\n```\n**Example:**\n```\nblock_hash = bitcoin.chain.get_latest_block_hash()\nprint(block_hash)\n```\n**Outputs:**\n```\n\"00000000000000000001568e72a26b2bed6507a2ad59a3693c1df544298aa290\"\n```\n\n## get_block_hash\n**Inputs:**\n```\n{\"height\":676486}\n```\n**Example:**\n```\nblock_hash = bitcoin.chain.get_block_hash(676486)\nprint(block_hash)\n```\n**Outputs:**\n```\n\"00000000000000000004194093f23783768d7904234c0dbba53e85bce6ecd8b4\"\n```\n\n## get_block\n**Inputs:**\n```\n{\n    \"block_hash\":\"00000000000000000004194093f23783768d7904234c0dbba53e85bce6ecd8b4\",\n    \"verbosity\":(1 or 2)\n}\n```\n**Example:**\n```\nblock = bitcoin.chain.get_block(\"00000000000000000004194093f23783768d7904234c0dbba53e85bce6ecd8b4\",1)\nprint(block)\n```\n**Outputs:**\n```\n{\n  'hash': '00000000000000000004194093f23783768d7904234c0dbba53e85bce6ecd8b4',\n  'confirmations': 6,\n  'strippedsize': 785759,\n  'size': 1635717,\n  'weight': 3992994,\n  'height': 676486,\n  'version': 805298176,\n  'versionHex': '2fffe000',\n  'merkleroot': 'a459aa15500bb7329048c3a6de618f6246331afb7da52a9b4d8d3f644dbd9b2a',\n  'tx': [\n    'f68394a5fa08907fbdd049401a4da25b10bd57f9301822747a23830fe328de6e',\n    '758068faf8d7595a9947aa12c4a5eef345b019249cf356641092675bc47ccbb1',\n    ...\n    '19ba0de5b052b1681175b4a03ff5e253596f45d0b383c4d28d69e9514cbf2358',\n    '59d30eb97e67114b17f6844f894ef1a7c2f6857fad233c79895d350631b0df70'\n  ],\n  'time': 1616823172,\n  'mediantime': 1616820760,\n  'nonce': 721999411,\n  'bits': '170cdf6f',\n  'difficulty': 21865558044610.55,\n  'chainwork': '00000000000000000000000000000000000000001b320e06ae9ef1369631a55f',\n  'nTx': 819,\n  'previousblockhash': '000000000000000000017405ac02f1d4189edb4fda1d22b23336aa2c5941aa0c',\n  'nextblockhash': '000000000000000000042264a471acdf4b9b3cbd98e585072f1505f092b7d3d3'\n}\n```\n**Example:**\n```\n# verbosity = 2\nblock = bitcoin.chain.get_block(\"00000000000000000004194093f23783768d7904234c0dbba53e85bce6ecd8b4\",2)\nprint(block)\n```\n**Outputs:**\n```\n{\n  \"hash\": \"00000000000000000005dab6d9ad630d162b9912d211bac7eff372da3ab9fb5d\",\n  \"confirmations\": 3085,\n  \"strippedsize\": 881548,\n  \"size\": 1348604,\n  \"weight\": 3993248,\n  \"height\": 669720,\n  \"version\": 541065216,\n  \"versionHex\": \"20400000\",\n  \"merkleroot\": \"eeab6aa0784b444ad1996dbe9c9f2ca99a9ab55986c834e013491fff67b4cc33\",\n  \"tx\": [\n    {\n      \"txid\": \"7315436d4514d09e9920cd713926c06787a6b3482f8447024553387296e37139\",\n      \"hash\": \"79385437cb24518284dcefa937608c1c9f0c6af582d84d7cbdf8dff73dd3706c\",\n      \"version\": 1,\n      \"size\": 351,\n      \"vsize\": 324,\n      \"weight\": 1296,\n      \"locktime\": 0,\n      \"vin\": [\n        {\n          \"coinbase\": \"0318380a1b4d696e656420627920416e74506f6f6c37313718001502e4062246fabe6d6db12f2886437ab2653bb68931b5064e4504431a62f9249aaac5055b8689a61ded0200000000000000d74200001b1f0000\",\n          \"txinwitness\": [\n            \"0000000000000000000000000000000000000000000000000000000000000000\"\n          ],\n          \"sequence\": 4294967295\n        }\n      ],\n      \"vout\": [\n        {\n          \"value\": 7.91767516,\n          \"n\": 0,\n          \"scriptPubKey\": {\n            \"asm\": \"OP_DUP OP_HASH160 11dbe48cc6b617f9c6adaf4d9ed5f625b1c7cb59 OP_EQUALVERIFY OP_CHECKSIG\",\n            \"hex\": \"76a91411dbe48cc6b617f9c6adaf4d9ed5f625b1c7cb5988ac\",\n            \"reqSigs\": 1,\n            \"type\": \"pubkeyhash\",\n            \"addresses\": [\n              \"12dRugNcdxK39288NjcDV4GX7rMsKCGn6B\"\n            ]\n          }\n        },\n        {\n          \"value\": 0.00000000,\n          \"n\": 1,\n          \"scriptPubKey\": {\n            \"asm\": \"OP_RETURN aa21a9ed847cecd8d19a2b273e9ed719712fb52c673ccf7c8c486298fa674ac8471b2ecc\",\n            \"hex\": \"6a24aa21a9ed847cecd8d19a2b273e9ed719712fb52c673ccf7c8c486298fa674ac8471b2ecc\",\n            \"type\": \"nulldata\"\n          }\n        },\n        {\n          \"value\": 0.00000000,\n          \"n\": 2,\n          \"scriptPubKey\": {\n            \"asm\": \"OP_RETURN b9e11b6d5edc611765152f7bc839ccc42f8fde51b16f98dc5d90d67ad5ab9401e3bf8caa\",\n            \"hex\": \"6a24b9e11b6d5edc611765152f7bc839ccc42f8fde51b16f98dc5d90d67ad5ab9401e3bf8caa\",\n            \"type\": \"nulldata\"\n          }\n        },\n        {\n          \"value\": 0.00000000,\n          \"n\": 3,\n          \"scriptPubKey\": {\n            \"asm\": \"OP_RETURN 52534b424c4f434b3a901e65f5f1903c005f31b41a63e7d648e405f808e9d5627a4eae8229002f25ac\",\n            \"hex\": \"6a2952534b424c4f434b3a901e65f5f1903c005f31b41a63e7d648e405f808e9d5627a4eae8229002f25ac\",\n            \"type\": \"nulldata\"\n          }\n        }\n      ],\n      \"hex\": \"010000000001010000000000000000000000000000000000000000000000000000000000000000ffffffff540318380a1b4d696e656420627920416e74506f6f6c37313718001502e4062246fabe6d6db12f2886437ab2653bb68931b5064e4504431a62f9249aaac5055b8689a61ded0200000000000000d74200001b1f0000ffffffff04dc69312f000000001976a91411dbe48cc6b617f9c6adaf4d9ed5f625b1c7cb5988ac0000000000000000266a24aa21a9ed847cecd8d19a2b273e9ed719712fb52c673ccf7c8c486298fa674ac8471b2ecc0000000000000000266a24b9e11b6d5edc611765152f7bc839ccc42f8fde51b16f98dc5d90d67ad5ab9401e3bf8caa00000000000000002b6a2952534b424c4f434b3a901e65f5f1903c005f31b41a63e7d648e405f808e9d5627a4eae8229002f25ac0120000000000000000000000000000000000000000000000000000000000000000000000000\"\n    },\n    {\n      \"txid\": \"3ca26fe995a6c53e2c8b2457e068cc0321eccedfa4e0ea60627e03c86f4305d8\",\n      \"hash\": \"3ca26fe995a6c53e2c8b2457e068cc0321eccedfa4e0ea60627e03c86f4305d8\",\n      \"version\": 1,\n      \"size\": 387,\n      \"vsize\": 387,\n      \"weight\": 1548,\n      \"locktime\": 0,\n      \"vin\": [\n        {\n          \"txid\": \"8296fb964bd6dbcbc8567e8b731d964fcd5c481b26669a7faaf675f7eb91dc94\",\n          \"vout\": 10,\n          \"scriptSig\": {\n            \"asm\": \"304402200f39c3128648123c3e97b1609499bb9cb75f28c7e51110fdfe09b5e9c07fd19d02204ce16e193980969bb90feb80fae3b5d0ad0453416aeb97a01edc4e128895565f[ALL] 04c4b7a7f7bb2c899f4aeab75b41567c040ae79506d43ee72f650c95b6319e47402f0ba88d1c5a294d075885442679dc24882ea37c31e0dbc82cfd51ed185d7e94\",\n            \"hex\": \"47304402200f39c3128648123c3e97b1609499bb9cb75f28c7e51110fdfe09b5e9c07fd19d02204ce16e193980969bb90feb80fae3b5d0ad0453416aeb97a01edc4e128895565f014104c4b7a7f7bb2c899f4aeab75b41567c040ae79506d43ee72f650c95b6319e47402f0ba88d1c5a294d075885442679dc24882ea37c31e0dbc82cfd51ed185d7e94\"\n          },\n          \"sequence\": 4294967295\n        }\n      ],\n      \"vout\": [\n        {\n          \"value\": 0.00864000,\n          \"n\": 0,\n          \"scriptPubKey\": {\n            \"asm\": \"OP_HASH160 241b7ad339c2f3c43bd5f34db630d69fa914848d OP_EQUAL\",\n            \"hex\": \"a914241b7ad339c2f3c43bd5f34db630d69fa914848d87\",\n            \"reqSigs\": 1,\n            \"type\": \"scripthash\",\n            \"addresses\": [\n              \"34ywAn7Y4YEZBk34XAmMBo1YqsqXRra8DR\"\n            ]\n          }\n        },\n        {\n          \"value\": 0.03261804,\n          \"n\": 1,\n          \"scriptPubKey\": {\n            \"asm\": \"OP_DUP OP_HASH160 344921df9da453f9b9de4590302c5702e5dd8656 OP_EQUALVERIFY OP_CHECKSIG\",\n            \"hex\": \"76a914344921df9da453f9b9de4590302c5702e5dd865688ac\",\n            \"reqSigs\": 1,\n            \"type\": \"pubkeyhash\",\n            \"addresses\": [\n              \"15mTkJGcBvQGARkYBzT9QVzWxJZSbjSKVB\"\n            ]\n          }\n        },\n        {\n          \"value\": 0.00525000,\n          \"n\": 2,\n          \"scriptPubKey\": {\n            \"asm\": \"OP_DUP OP_HASH160 1558f83af264835ff900488a6d239be4a31be1ed OP_EQUALVERIFY OP_CHECKSIG\",\n            \"hex\": \"76a9141558f83af264835ff900488a6d239be4a31be1ed88ac\",\n            \"reqSigs\": 1,\n            \"type\": \"pubkeyhash\",\n            \"addresses\": [\n              \"12wsmkPTh6SFYySAmbXabnftVykecHfrch\"\n            ]\n          }\n        },\n        {\n          \"value\": 0.00022593,\n          \"n\": 3,\n          \"scriptPubKey\": {\n            \"asm\": \"OP_HASH160 eff0ce59b1fd8a5d942b1bad7e8d85c8029b7624 OP_EQUAL\",\n            \"hex\": \"a914eff0ce59b1fd8a5d942b1bad7e8d85c8029b762487\",\n            \"reqSigs\": 1,\n            \"type\": \"scripthash\",\n            \"addresses\": [\n              \"3PZhttXxA3ZZWzC3q66WNr8GeqXNutA1To\"\n            ]\n          }\n        },\n        {\n          \"value\": 0.00230000,\n          \"n\": 4,\n          \"scriptPubKey\": {\n            \"asm\": \"OP_HASH160 4e375344ad7839cec1dbc783609310b22634ac4c OP_EQUAL\",\n            \"hex\": \"a9144e375344ad7839cec1dbc783609310b22634ac4c87\",\n            \"reqSigs\": 1,\n            \"type\": \"scripthash\",\n            \"addresses\": [\n              \"38pauaDL3gDL5sFZH8xPoodYvVGoagq1B6\"\n            ]\n          }\n        },\n        {\n          \"value\": 4.29053835,\n          \"n\": 5,\n          \"scriptPubKey\": {\n            \"asm\": \"OP_DUP OP_HASH160 7ddb236e7877d5040e2a59e4be544c65934e573a OP_EQUALVERIFY OP_CHECKSIG\",\n            \"hex\": \"76a9147ddb236e7877d5040e2a59e4be544c65934e573a88ac\",\n            \"reqSigs\": 1,\n            \"type\": \"pubkeyhash\",\n            \"addresses\": [\n              \"1CUTyyxgbKvtCdoYmceQJCZLXCde5akiX2\"\n            ]\n          }\n        }\n      ],\n      \"hex\": \"010000000194dc91ebf775f6aa7f9a66261b485ccd4f961d738b7e56c8cbdbd64b96fb96820a0000008a47304402200f39c3128648123c3e97b1609499bb9cb75f28c7e51110fdfe09b5e9c07fd19d02204ce16e193980969bb90feb80fae3b5d0ad0453416aeb97a01edc4e128895565f014104c4b7a7f7bb2c899f4aeab75b41567c040ae79506d43ee72f650c95b6319e47402f0ba88d1c5a294d075885442679dc24882ea37c31e0dbc82cfd51ed185d7e94ffffffff06002f0d000000000017a914241b7ad339c2f3c43bd5f34db630d69fa914848d876cc53100000000001976a914344921df9da453f9b9de4590302c5702e5dd865688acc8020800000000001976a9141558f83af264835ff900488a6d239be4a31be1ed88ac415800000000000017a914eff0ce59b1fd8a5d942b1bad7e8d85c8029b762487708203000000000017a9144e375344ad7839cec1dbc783609310b22634ac4c878bd79219000000001976a9147ddb236e7877d5040e2a59e4be544c65934e573a88ac00000000\"\n    },\n   ...\n   {\n      \"txid\": \"112ed40dfb9136511a30ffceaf15101d2a805ebcacdb7a7915d846d151aa661a\",\n      \"hash\": \"112ed40dfb9136511a30ffceaf15101d2a805ebcacdb7a7915d846d151aa661a\",\n      \"version\": 1,\n      \"size\": 189,\n      \"vsize\": 189,\n      \"weight\": 756,\n      \"locktime\": 0,\n      \"vin\": [\n        {\n          \"txid\": \"09f02cd6ea426f1b346b80bd88f6fb680ee9accca875f2580d5635c9946464eb\",\n          \"vout\": 0,\n          \"scriptSig\": {\n            \"asm\": \"304402202b6fa8ab5202515fddfbe915ca220639bc76be1d8c142194f2d0cdedf5e830a602207e9fc8477f02d65bfdc62b9a9385e46a4e8cdff4813537e87caba91990e59b1f[ALL] 035ebbcbd7778a980b66a47a6196691c39d9ef69a20491d9415daec3c1de5195f9\",\n            \"hex\": \"47304402202b6fa8ab5202515fddfbe915ca220639bc76be1d8c142194f2d0cdedf5e830a602207e9fc8477f02d65bfdc62b9a9385e46a4e8cdff4813537e87caba91990e59b1f0121035ebbcbd7778a980b66a47a6196691c39d9ef69a20491d9415daec3c1de5195f9\"\n          },\n          \"sequence\": 4294967295\n        }\n      ],\n      \"vout\": [\n        {\n          \"value\": 0.00589600,\n          \"n\": 0,\n          \"scriptPubKey\": {\n            \"asm\": \"OP_HASH160 e7e1d4d5d7704c30fe317bf8016181175370206d OP_EQUAL\",\n            \"hex\": \"a914e7e1d4d5d7704c30fe317bf8016181175370206d87\",\n            \"reqSigs\": 1,\n            \"type\": \"scripthash\",\n            \"addresses\": [\n              \"3Nq6Ytx5Lbvf7TwUz9zCjnTDekgaNWp4Tk\"\n            ]\n          }\n        }\n      ],\n      \"hex\": \"0100000001eb646494c935560d58f275a8ccace90e68fbf688bd806b341b6f42ead62cf009000000006a47304402202b6fa8ab5202515fddfbe915ca220639bc76be1d8c142194f2d0cdedf5e830a602207e9fc8477f02d65bfdc62b9a9385e46a4e8cdff4813537e87caba91990e59b1f0121035ebbcbd7778a980b66a47a6196691c39d9ef69a20491d9415daec3c1de5195f9ffffffff0120ff08000000000017a914e7e1d4d5d7704c30fe317bf8016181175370206d8700000000\"\n    }\n  ],\n  \"time\": 1612798475,\n  \"mediantime\": 1612795492,\n  \"nonce\": 3178414745,\n  \"bits\": \"170d21b9\",\n  \"difficulty\": 21434395961348.92,\n  \"chainwork\": \"0000000000000000000000000000000000000000192ae9c64cff6db7c9dcb30b\",\n  \"nTx\": 3043,\n  \"previousblockhash\": \"0000000000000000000c343308b3093403c6f28107139f49d306e9dd85aed438\",\n  \"nextblockhash\": \"000000000000000000083fba49c903b65ecb0636cc229e8f5c6c4df9d8d7e1d0\"\n}\n\n```\n\n# raw\n## get_raw_transaction\nThis function can't work if you did not set 'tindex=1' when you run bitcoind <br/>\n**Inputs:**\n```\n\"tx_id\":\"f68394a5fa08907fbdd049401a4da25b10bd57f9301822747a23830fe328de6e\"\n```\n**Example:**\n```\nrt = bitcoin.raw.get_raw_transaction(\"f68394a5fa08907fbdd049401a4da25b10bd57f9301822747a23830fe328de6e\")\nprint(rt)\n```\n**Outputs:**\n```\n\"020000000001010000000000000000000000000000000000000000000000000000000000000000ffffffff1f0386520a0484c35e6062696e616e63652f626a4629220e4781290000000000ffffffff020e9db926000000001600143156afc4249915008020f932783319f3e610b97d0000000000000000266a24aa21a9ed50ab3dbcc26ab26a587dddf4b98d93036e0cfd52c141eae7983775aa534f51820120000000000000000000000000000000000000000000000000000000000000000000000000\"\n```\n\n## decode_raw_transaction\n**Inputs:**\n```\n\"rt\":\"020000000001010000000000000000000000000000000000000000000000000000000000000000ffffffff1f0386520a0484c35e6062696e616e63652f626a4629220e4781290000000000ffffffff020e9db926000000001600143156afc4249915008020f932783319f3e610b97d0000000000000000266a24aa21a9ed50ab3dbcc26ab26a587dddf4b98d93036e0cfd52c141eae7983775aa534f51820120000000000000000000000000000000000000000000000000000000000000000000000000\"\n```\n**Example:**\n```\ntran = bitcoin.raw.decode_raw_transaction(\"020000000001010000000000000000000000000000000000000000000000000000000000000000ffffffff1f0386520a0484c35e6062696e616e63652f626a4629220e4781290000000000ffffffff020e9db926000000001600143156afc4249915008020f932783319f3e610b97d0000000000000000266a24aa21a9ed50ab3dbcc26ab26a587dddf4b98d93036e0cfd52c141eae7983775aa534f51820120000000000000000000000000000000000000000000000000000000000000000000000000\")\nprint(tran)\n```\n**Outputs:**\n```\n{\n  'txid': 'f68394a5fa08907fbdd049401a4da25b10bd57f9301822747a23830fe328de6e',\n  'hash': '2972ad7373d1dfcb074be84b96f3da0632993feb52b00a645fc7d137ce8b9414',\n  'version': 2,\n  'size': 196,\n  'vsize': 169,\n  'weight': 676,\n  'locktime': 0,\n  'vin': [\n    {\n      'coinbase': '0386520a0484c35e6062696e616e63652f626a4629220e4781290000000000',\n      'txinwitness': [\n        '0000000000000000000000000000000000000000000000000000000000000000'\n      ],\n      'sequence': 4294967295\n    }\n  ],\n  'vout': [\n    {\n      'value': 6.49698574,\n      'n': 0,\n      'scriptPubKey': {\n        'asm': '0 3156afc4249915008020f932783319f3e610b97d',\n        'hex': '00143156afc4249915008020f932783319f3e610b97d',\n        'reqSigs': 1,\n        'type': 'witness_v0_keyhash',\n        'addresses': [\n          'bc1qx9t2l3pyny2spqpqlye8svce70nppwtaxwdrp4'\n        ]\n      }\n    },\n    {\n      'value': 0.0,\n      'n': 1,\n      'scriptPubKey': {\n        'asm': 'OP_RETURN aa21a9ed50ab3dbcc26ab26a587dddf4b98d93036e0cfd52c141eae7983775aa534f5182',\n        'hex': '6a24aa21a9ed50ab3dbcc26ab26a587dddf4b98d93036e0cfd52c141eae7983775aa534f5182',\n        'type': 'nulldata'\n      }\n    }\n  ]\n}\n```\n\n# wallet\nThe wallet will be automatically loaded after created, do not load it again\n## create_wallet\n**Inputs:**\n```\n{\n    \"name\":\"nice\"\n}\n```\n**Example:**\n```\nwa = bitcoin.wallet.create_wallet(\"nice\")\nprint(wa)\n```\n**Outputs:**\n```\n{\n  'name': 'nice',\n  'warning': 'Empty string given as passphrase, wallet will not be encrypted.'\n}\n```\n\n## load_wallet\nThe wallet needs to be reloaded after the bitcoind node restarts <br/>\n**Inputs:**\n```\n{\n    \"wallet\":\"nice\"\n}\n```\n**Example:**\n```\nwa = bitcoin.wallet.load_wallet(\"nice\")\nprint(wa)\n```\n**Outputs:**\n```\n{\n    'name': 'nice', \n    'warning': ''\n}\n```\n\n## list_wallets\n**Inputs:**\n```\nNone\n```\n**Example:**\n```\nwallets = bitcoin.wallet.list_wallets()\nprint(wa)\n```\n**Outputs:**\n```['nice', 'firstwallet']```\n\n## encrypt_wallet\n**Inputs:**\n```\n{\n    \"wallet\":\"nice\",\n    \"pass_phrase\":\"qwe123\"    \n}\n```\n**Example:**\n```\nres = bitcoin.wallet.encrypt_wallet(\"nice\",\"qwe123\")\nprint(res)\n```\n**Outputs:**\n```\nwallet encrypted; The keypool has been flushed and a new HD seed was generated (if you are using HD). You need to make a new backup.\n```\n\n## wallet_pass_phrase\nUnlock the wallet after transaction or sign in 'timeout' seconds <br/>\n**Inputs:**\n```\n{\n    \"wallet\":\"nice\",\n    \"pass_phrase\":\"qwe123\"\n    \"timeout\": default 10    \n}\n```\n**Example:**\n```\nbitcoin.wallet.wallet_pass_phrase(\"nice\",\"qwe123\")\n```\n**Outputs:**\n```\nNone\n```\n\n\n## wallet_lock\nLock the wallet <br/>\n**Inputs:**\n```\n{\n  \"wallet\":\"nice\"\n}\n```\n**Example:**\n```\nbitcoin.wallet.wallet_lock(\"nice\")\n```\n**Outputs:**\n```\nNone\n```\n\n## get_new_address\n**Inputs:**\n```\n{\n    \"wallet\":\"nice\",\n    \"label\":\"wow\"\n}\n```\n**Example:**\n```\naddress = bitcoin.wallet.get_new_address(\"nice\",\"wow\")\nprint(address)\n```\n**Outputs:**\n```\n\"1PXjDKw3PeDLqfFYok5bdQMnP2F1AxqmPT\"\n```\n\n## get_balance\n**Inputs:**\n```\n{\n    \"wallet\":\"nice\"\n}\n```\n**Example:**\n```\nbalance = bitcoin.wallet.get_balance(\"nice\")\nprint(balance)\n```\n**Outputs:**\n```\n0.0\n```\n## send_to_address\n**Inputs:**\n```\n{\n    \"wallet\":\"nice\",\n    \"address\":\"34SVsJB3ypby7rqeK5z9vAf9Y3jE39vZhk\",\n    \"num\":0.007\n}\n```\n**Example:**\n```\n    # Unlock wallet first if your wallet is encrypted\n    bitcoin.wallet.wallet_pass_phrase(wallet=\"nice\", \"your wallet pass\")\n    trans_hash = bitcoin.wallet.send_to_address(wallet=\"nice\", address=address, amount=num)\n    bitcoin.wallet.wallet_lock(\"nice\")\n```\n**Outputs:**\n```\ne744d19e20e958dabe37480693ca15ea311512b79370ee3751f1db404f68086a\n```\n## list_received_by_address\n**Inputs:**\n```\n{\n    \"wallet\":\"nice\"\n    \"include_empty\":True\n}\n```\n**Example:**\n```\nres = bitcoin.wallet.list_received_by_address(\"nice\",include_empty=True)\nprint(res)\n```\n**Outputs:**\n```\n[\n  {\n    'address': '1k679FsMRJfUQeTh4txPF35v39NaRNse3',\n    'amount': 0.0,\n    'confirmations': 0,\n    'label': 'go',\n    'txids': []\n  },\n  {\n    'address': '14csDNFKwkzAJK3Jkk5QWj37NiV6eZ4P17',\n    'amount': 0.0,\n    'confirmations': 0,\n    'label': 'like',\n    'txids': []\n  }\n]\n```\n\n## list_received_by_label\n**Inputs:**\n```\n{\n    \"wallet\":\"nice\"\n    \"include_empty\":True\n}\n```\n**Example:**\n```\nres = bitcoin.wallet.list_received_by_label(\"firstwallet\",include_empty=True)\nprint(res)\n```\n**Outputs:**\n```\n[\n  {\n    'amount': 0.0,\n    'confirmations': 0,\n    'label': ''\n  },\n  {\n    'amount': 0.0,\n    'confirmations': 0,\n    'label': 'go'\n  },\n  {\n    'amount': 0.0,\n    'confirmations': 0,\n    'label': 'like'\n  },\n  {\n    'amount': 0.0,\n    'confirmations': 0,\n    'label': 'nice'\n  }\n]\n```\n\n## list_transactions\nList all transactions of the input wallet <br/>\n**Inputs:**\n```\n{\n    \"wallet\":\"nice\"\n}\n```\n**Example:**\n```\nres = bitcoin.wallet.list_transactions(\"nice\")\nprint(res)\n```\n**Outputs:**\n```\n[{\n\t\t'address': '114WWGL9a48riuwJ7dRXmTLB5byuBoKa1c',\n\t\t'category': 'receive',\n\t\t'amount': 0.0003,\n\t\t'label': '',\n\t\t'vout': 0,\n\t\t'confirmations': 106,\n\t\t'blockhash': '000000000000000000064e7b027635dc74f67ad07f5ba663f20f13c8e4e43cf6',\n\t\t'blockheight': 686968,\n\t\t'blockindex': 73,\n\t\t'blocktime': 1623259242,\n\t\t'txid': '23b865efea07e64772364a3d398de0caec8d12c1a66d60c568fac668967a2a54',\n\t\t'walletconflicts': [],\n\t\t'time': 1623258313,\n\t\t'timereceived': 1623258313,\n\t\t'bip125-replaceable': 'no'\n\t},\n\t{\n\t\t'address': '1Bysn2ke1116PA95bnwBckV79VXhbHaPKH',\n\t\t'category': 'receive',\n\t\t'amount': 0.005955,\n\t\t'label': '',\n\t\t'vout': 18,\n\t\t'confirmations': 103,\n\t\t'blockhash': '0000000000000000000a16f6075a718ab2d39715518d4f1e6306eb8c0ac3e513',\n\t\t'blockheight': 686971,\n\t\t'blockindex': 151,\n\t\t'blocktime': 1623261342,\n\t\t'txid': 'a0a997e2f2ced0d71547cb976eb91c722f9b084e3d298df5ef2f4b7d39a1e31c',\n\t\t'walletconflicts': [],\n\t\t'time': 1623260819,\n\t\t'timereceived': 1623260819,\n\t\t'bip125-replaceable': 'no'\n\t},\n\t{\n\t\t'address': '34SVsJB3ypby7rqeK5z9vAf9Y3jE39vZhk',\n\t\t'category': 'send',\n\t\t'amount': -0.06,\n\t\t'vout': 1,\n\t\t'fee': -9.903e-05,\n\t\t'confirmations': 3,\n\t\t'blockhash': '00000000000000000009fc9175f79c95124a8c77e06195777eb5ece311da4c91',\n\t\t'blockheight': 687071,\n\t\t'blockindex': 1488,\n\t\t'blocktime': 1623338419,\n\t\t'txid': '439e56deee13966990b30f0af679f6be09a432513cac00bbfe35a674a1a44ece',\n\t\t'walletconflicts': [],\n\t\t'time': 1623336129,\n\t\t'timereceived': 1623336129,\n\t\t'bip125-replaceable': 'no',\n\t\t'abandoned': False\n\t},\n\t{\n\t\t'address': '34SVsJB3ypby7rqeK5z9vAf9Y3jE39vZhk',\n\t\t'category': 'send',\n\t\t'amount': -0.007,\n\t\t'vout': 1,\n\t\t'fee': -0.00015745,\n\t\t'confirmations': 3,\n\t\t'blockhash': '00000000000000000009fc9175f79c95124a8c77e06195777eb5ece311da4c91',\n\t\t'blockheight': 687071,\n\t\t'blockindex': 1489,\n\t\t'blocktime': 1623338419,\n\t\t'txid': 'e744d19e20e958dabe37480693ca15ea311512b79370ee3751f1db404f68086a',\n\t\t'walletconflicts': [],\n\t\t'time': 1623336414,\n\t\t'timereceived': 1623336414,\n\t\t'bip125-replaceable': 'no',\n\t\t'abandoned': False\n\t},\n\t{\n\t\t'address': '1CjYyNrVMSZ1B8XbcBrGCWeLbd5TiB3A34',\n\t\t'category': 'receive',\n\t\t'amount': 0.00352522,\n\t\t'label': '',\n\t\t'vout': 22,\n\t\t'confirmations': 4,\n\t\t'blockhash': '000000000000000000005177781815936656959e2e90fcdef55b7b1ef3f7e778',\n\t\t'blockheight': 687070,\n\t\t'blockindex': 255,\n\t\t'blocktime': 1623338159,\n\t\t'txid': 'b9d66319ffd44a4d0c6598e1f7c1ad5632b48a194f41cdf0add8c52d4b1c6141',\n\t\t'walletconflicts': [],\n\t\t'time': 1623336850,\n\t\t'timereceived': 1623336850,\n\t\t'bip125-replaceable': 'no'\n\t},\n\t{\n\t\t'address': '1z7DPq9rEKayDQPz2azpzzdWDvmxmteog',\n\t\t'category': 'receive',\n\t\t'amount': 0.0412097,\n\t\t'label': '',\n\t\t'vout': 25,\n\t\t'confirmations': 0,\n\t\t'trusted': False,\n\t\t'txid': '2cd6d223587adfa310fe97aa5d324cb37f3ea60db7ad39b25fdce4f117a75345',\n\t\t'walletconflicts': [],\n\t\t'time': 1623339013,\n\t\t'timereceived': 1623339013,\n\t\t'bip125-replaceable': 'no'\n\t}\n]\n```\n\n\n# utils\n## validate_address\nValidate input address, return True if address is legal <br/>\n**Inputs**\n```\n  {'address':'34wcANsazFutEiTegvsYUCZz5NDmsLg9Jh'}\n```\n**Example:**\n```angular2html\n  res = bitcoin.utils.validate_address(\"34wcANsazFutEiTegvsYUCZz5NDmsLg9Jh\")\n  print(res)\n```\n**Outputs**\n```angular2html\n    True\n```\n\n# Tips\n- The default parameters of these functions are not specified in the document, you need to check the source code by yourself.\n- The current document is incomplete, I will gradually improve the document later.\n\n",
    "description_content_type": "text/markdown",
    "docs_url": null,
    "download_url": "",
    "downloads": {
      "last_day": -1,
      "last_month": -1,
      "last_week": -1
    },
    "home_page": "https://github.com/wenqinchao/btc",
    "keywords": "",
    "license": "MIT",
    "maintainer": "",
    "maintainer_email": "",
    "name": "btc-cj",
    "package_url": "https://pypi.org/project/btc-cj/",
    "platform": "",
    "project_url": "https://pypi.org/project/btc-cj/",
    "project_urls": {
      "Homepage": "https://github.com/wenqinchao/btc"
    },
    "release_url": "https://pypi.org/project/btc-cj/1.0.3/",
    "requires_dist": null,
    "requires_python": ">=3.6",
    "summary": "A package interact with bitcoin node",
    "version": "1.0.3",
    "yanked": false,
    "yanked_reason": null
  },
  "last_serial": 10916194,
  "releases": {
    "1.0.2": [
      {
        "comment_text": "",
        "digests": {
          "blake2b_256": "881ccc4ed129b722c9dedcacb0cdb29beca7c956dd4349cfc7b77ed31517bc4d",
          "md5": "df13f9a385de831b651afb39a7184463",
          "sha256": "40bfcf72da71b0e52baae6675c797361dd12e07df187c08a19986bf638dd6fbb"
        },
        "downloads": -1,
        "filename": "btc_cj-1.0.2-py3-none-any.whl",
        "has_sig": false,
        "md5_digest": "df13f9a385de831b651afb39a7184463",
        "packagetype": "bdist_wheel",
        "python_version": "py3",
        "requires_python": ">=3.6",
        "size": 22345,
        "upload_time": "2021-06-10T15:37:01",
        "upload_time_iso_8601": "2021-06-10T15:37:01.304906Z",
        "url": "https://files.pythonhosted.org/packages/88/1c/cc4ed129b722c9dedcacb0cdb29beca7c956dd4349cfc7b77ed31517bc4d/btc_cj-1.0.2-py3-none-any.whl",
        "yanked": false,
        "yanked_reason": null
      },
      {
        "comment_text": "",
        "digests": {
          "blake2b_256": "69013d3fcb7e4af686fdb509ce92963404801a2c05175cdeb3a4acf3e44bae49",
          "md5": "9dd031f21abdfc5336dc79e894a89132",
          "sha256": "4877bf71790e070d03ed48a986982dc01ec3e43411f3a8bf1450775a24a08877"
        },
        "downloads": -1,
        "filename": "btc_cj-1.0.2.tar.gz",
        "has_sig": false,
        "md5_digest": "9dd031f21abdfc5336dc79e894a89132",
        "packagetype": "sdist",
        "python_version": "source",
        "requires_python": ">=3.6",
        "size": 25703,
        "upload_time": "2021-06-10T15:37:02",
        "upload_time_iso_8601": "2021-06-10T15:37:02.836326Z",
        "url": "https://files.pythonhosted.org/packages/69/01/3d3fcb7e4af686fdb509ce92963404801a2c05175cdeb3a4acf3e44bae49/btc_cj-1.0.2.tar.gz",
        "yanked": false,
        "yanked_reason": null
      }
    ],
    "1.0.3": [
      {
        "comment_text": "",
        "digests": {
          "blake2b_256": "197c8717f1a719b7cbfdbede2c9150a154ffe67d1d8a66666f47e72a76f09f8c",
          "md5": "1ea4e16f68bcdeb48a1fe0b01b0b8076",
          "sha256": "98c3c7b0da7b018d4c80fe38051deb421bc8cff345033e9da4d00d602405d410"
        },
        "downloads": -1,
        "filename": "btc_cj-1.0.3-py3-none-any.whl",
        "has_sig": false,
        "md5_digest": "1ea4e16f68bcdeb48a1fe0b01b0b8076",
        "packagetype": "bdist_wheel",
        "python_version": "py3",
        "requires_python": ">=3.6",
        "size": 23360,
        "upload_time": "2021-07-15T09:23:39",
        "upload_time_iso_8601": "2021-07-15T09:23:39.879763Z",
        "url": "https://files.pythonhosted.org/packages/19/7c/8717f1a719b7cbfdbede2c9150a154ffe67d1d8a66666f47e72a76f09f8c/btc_cj-1.0.3-py3-none-any.whl",
        "yanked": false,
        "yanked_reason": null
      },
      {
        "comment_text": "",
        "digests": {
          "blake2b_256": "d35e124656b3d44f198dd5b4b681a0dd40180f9222a8427f9c2105de0e973efb",
          "md5": "d7c34842cc2d24079a6917db5b606922",
          "sha256": "ae4a7c78a644de945fcdcd59f5799e4fe4717c559554af4b9dc8611129a1c25c"
        },
        "downloads": -1,
        "filename": "btc_cj-1.0.3.tar.gz",
        "has_sig": false,
        "md5_digest": "d7c34842cc2d24079a6917db5b606922",
        "packagetype": "sdist",
        "python_version": "source",
        "requires_python": ">=3.6",
        "size": 29498,
        "upload_time": "2021-07-15T09:23:42",
        "upload_time_iso_8601": "2021-07-15T09:23:42.861068Z",
        "url": "https://files.pythonhosted.org/packages/d3/5e/124656b3d44f198dd5b4b681a0dd40180f9222a8427f9c2105de0e973efb/btc_cj-1.0.3.tar.gz",
        "yanked": false,
        "yanked_reason": null
      }
    ]
  },
  "urls": [
    {
      "comment_text": "",
      "digests": {
        "blake2b_256": "197c8717f1a719b7cbfdbede2c9150a154ffe67d1d8a66666f47e72a76f09f8c",
        "md5": "1ea4e16f68bcdeb48a1fe0b01b0b8076",
        "sha256": "98c3c7b0da7b018d4c80fe38051deb421bc8cff345033e9da4d00d602405d410"
      },
      "downloads": -1,
      "filename": "btc_cj-1.0.3-py3-none-any.whl",
      "has_sig": false,
      "md5_digest": "1ea4e16f68bcdeb48a1fe0b01b0b8076",
      "packagetype": "bdist_wheel",
      "python_version": "py3",
      "requires_python": ">=3.6",
      "size": 23360,
      "upload_time": "2021-07-15T09:23:39",
      "upload_time_iso_8601": "2021-07-15T09:23:39.879763Z",
      "url": "https://files.pythonhosted.org/packages/19/7c/8717f1a719b7cbfdbede2c9150a154ffe67d1d8a66666f47e72a76f09f8c/btc_cj-1.0.3-py3-none-any.whl",
      "yanked": false,
      "yanked_reason": null
    },
    {
      "comment_text": "",
      "digests": {
        "blake2b_256": "d35e124656b3d44f198dd5b4b681a0dd40180f9222a8427f9c2105de0e973efb",
        "md5": "d7c34842cc2d24079a6917db5b606922",
        "sha256": "ae4a7c78a644de945fcdcd59f5799e4fe4717c559554af4b9dc8611129a1c25c"
      },
      "downloads": -1,
      "filename": "btc_cj-1.0.3.tar.gz",
      "has_sig": false,
      "md5_digest": "d7c34842cc2d24079a6917db5b606922",
      "packagetype": "sdist",
      "python_version": "source",
      "requires_python": ">=3.6",
      "size": 29498,
      "upload_time": "2021-07-15T09:23:42",
      "upload_time_iso_8601": "2021-07-15T09:23:42.861068Z",
      "url": "https://files.pythonhosted.org/packages/d3/5e/124656b3d44f198dd5b4b681a0dd40180f9222a8427f9c2105de0e973efb/btc_cj-1.0.3.tar.gz",
      "yanked": false,
      "yanked_reason": null
    }
  ],
  "vulnerabilities": []
}